:060000000A128A112D2FE7
:100E5A0083010A128A11962F8312031308110A12A8
:100E6A008A1143270A128A110800831203130815EC
:100E7A000A128A1143270A128A11080083120313DD
:100E8A0088150030F3000030F2000030F1003230F3
:100E9A00F0000A128A1164270A128A1183120313B4
:100EAA0088110030F3000030F2000030F1006430A5
:100EBA00F0000A128A1164270A128A110800662FA2
:100ECA00662F0130F4000030F5000030F6000030E3
:100EDA00F7007408F0027508031C750F752F762F3A
:100EEA00F1027608031C760F7B2F7C2FF20277081B
:100EFA00031C770F812F822FF302FF307306031D25
:100F0A00902FFF307206031D902FFF307106031DCC
:100F1A00902FFF307006031D932F942F662F952F65
:100F2A0008008316031789018316031386018312A7
:100F3A000313860181308316031387008312031378
:100F4A008701F03083160313880083120313880184
:100F5A0020308316031398009030831203139800ED
:100F6A0019308316031399000A128A1131270A12BB
:100F7A008A1138308312031386000A128A11312724
:100F8A000A128A110C308312031386000A128A117C
:100F9A0031270A128A1101308312031386000A12BA
:100FAA008A1131270A128A118030831203138600AC
:100FBA000A128A1131270A128A11E32F83120313A4
:100FCA008C12E72F8C1EEA2FEB2FE72FEC2F1A0833
:100FDA00F8007808F900790886000A128A113A2777
:100FEA000A128A118312031388140815E32FE32FB8
:060FFA000A128A11002812
:00000001FF
